{
  "_format": "hh3-artifact-1",
  "contractName": "Homework",
  "sourceName": "contracts/Homework.sol",
  "abi": [
    {
      "anonymous": false,
      "inputs": [
        {
          "indexed": false,
          "internalType": "uint256",
          "name": "added",
          "type": "uint256"
        },
        {
          "indexed": false,
          "internalType": "uint256",
          "name": "newTotal",
          "type": "uint256"
        }
      ],
      "name": "SumAdded",
      "type": "event"
    },
    {
      "inputs": [
        {
          "internalType": "uint256[]",
          "name": "nums",
          "type": "uint256[]"
        }
      ],
      "name": "addNumbers",
      "outputs": [],
      "stateMutability": "nonpayable",
      "type": "function"
    },
    {
      "inputs": [],
      "name": "totalSum",
      "outputs": [
        {
          "internalType": "uint256",
          "name": "",
          "type": "uint256"
        }
      ],
      "stateMutability": "view",
      "type": "function"
    }
  ],
  "bytecode": "0x6080604052348015600e575f5ffd5b506101d78061001c5f395ff3fe608060405234801561000f575f5ffd5b5060043610610034575f3560e01c80634869f99d14610038578063b9a0386814610052575b5f5ffd5b6100405f5481565b60405190815260200160405180910390f35b6100656100603660046100f7565b610067565b005b5f805b828110156100a05783838281811061008457610084610168565b9050602002013582610096919061017c565b915060010161006a565b50805f5f8282546100b1919061017c565b90915550505f546040805183815260208101929092527fbb922ceaedf890c3cafcc925f112bd6faebf6ce9c4d69eccacd314c56ab80178910160405180910390a1505050565b5f5f60208385031215610108575f5ffd5b823567ffffffffffffffff81111561011e575f5ffd5b8301601f8101851361012e575f5ffd5b803567ffffffffffffffff811115610144575f5ffd5b8560208260051b8401011115610158575f5ffd5b6020919091019590945092505050565b634e487b7160e01b5f52603260045260245ffd5b8082018082111561019b57634e487b7160e01b5f52601160045260245ffd5b9291505056fea2646970667358221220a1b68f41c347202a0b81e116cae018d3dab5e31648685d87c53db7d19c15329f64736f6c634300081e0033",
  "linkReferences": {},
  "deployedLinkReferences": {},
  "immutableReferences": {},
  "inputSourceName": "project/contracts/Homework.sol",
  "buildInfoId": "solc-0_8_30-a3bb6767dc4a87350f93bba4da4e2f5279d4db3e"
}